:020000003C2A98
:06000600000000000800EC
:0E000C00213083120313FD00FD0B0A280800AB
:10001A000F3083120313FC004730FD00FD0B132839
:0A002A00FC0B132800000000080082
:1000340083120313F801F9011030FC00710DF80D5F
:10004400F90D7408F8027508031C750FF9020318FA
:1000540032287408F80775080318750FF907031098
:0A006400F00DF10DFC0B2028080040
:10006E0083120317D71B3E2803138812402803134D
:10007E0088160317571B4628031308124828031324
:10008E0008160317D71A4E28031388115028031386
:10009E0088150317571A56280313081158280313E7
:1000AE00081583166D185E288312081460288312B3
:1000BE0008108814032088100317D7196928031312
:1000CE0088126B2803138816031757197128031308
:1000DE0008127328031308160317D7187928031369
:1000EE0088117B28031388150317571881280313CB
:1000FE00081183280313081583166D188928831297
:10010E0008148B2883120810881403208810831675
:0C011E006D1C93280D209428062008007A
:10012A000E3083120313FD00FD0B9928000008000E
:10013A00831603136D10831203175208D700372052
:06014A0083166D1408008D
:1001500083120317D501053055020318B628550838
:100160005407840020308000D50AAB285508540776
:1001700084008001D50355085407D6000A30F400E6
:10018000F5015208F0005308F1001A207808F00039
:100190007908F1003030F007031756088400700822
:1001A00080000A30F400F5015208F0005308F10015
:1001B0001A2070080317D2007108D30000307106AE
:1001C000031DE42800307006031DE728E928D50345
:0401D000BB28080040
:0E01D400831203136F088A006E088200080071
:1001E200C330831203139F05C0309F0003174908D1
:1001F200F000F00D7010F00D7010700803139F04E2
:100202006609F000700883169F059F1783121F145A
:1002120095209F149F1C0F2900000B291F101E08F8
:10022200F100F00183161E08F0040030F10408000A
:1002320083120317CE01CF014908D0004A08D1002A
:1002420080304A06F00080307002031D2A290030F7
:100252004902031838290130CE000030CF00490886
:10026200003CD0004A08031C013ED101D1025008D3
:10027200D2005108D3004B08D400A8200630CC008D
:100282000030CD004D08003C031D49294C08003CBC
:10029200031864294C084B07F20001304C02F000AD
:1002A2000030031C013E4D02F10070084B07840030
:1002B2000008F00072088400700880000130CC024F
:1002C200031CCD0343294B088400203080004E08D4
:1002D2004F0403198229CC01CD014C084B0784003D
:1002E2000008203A031D7929CC0A0319CD0A6E2988
:1002F2000130CC02031CCD034C084B0784002D3087
:04030200800008006F
:100306009529803083120317C900A829C030C90077
:10031600A8299430C900A829D430C900A82980305A
:10032600C900A829831203174908013A0319842929
:100336004908023A031989294908033A03198C29FD
:100346004908043A03198F2992294A03F0004908FB
:10035600F0077008C9007008D700372083166D10A3
:1003660083120317CC014C084B07840000080319BD
:10037600C6294C084B0784000008D2009D20831232
:0E0386000317CC0AB629831603136D14080062
:10039400FF3083120317C000FF30C100FF30C200DA
:1003A400FF30C33003139F05C0309F006609F0007F
:0E03B400700883169F059F1783121F14080000
:1003C200EA208A110A128000840AEE0A0319EF0A4F
:0803D200F003031DE1290800FE
:1003DA00831603138810081008118811081288124E
:1003EA0083128810081088120812881108110D202B
:1003FA000D200D20881508158814032088100D205B
:10040A008814032088100D208814032088100D20DA
:10041A0008118814032088100D20881403208810DE
:10042A00881188168814032088100D208812081550
:10043A0088140320881008118814032088100D20BE
:10044A0088140320881008158814032088100D20AA
:10045A0008118814032088108816081688150815AC
:0E046A008814032088100D2083166D140800DE
:100478007C2683160313EE01EF0183120317C301D1
:10048800C401C501C601C701C8010330831688002D
:100498008901031387018312870183168910831248
:1004A80089108316091183120911143083168600E6
:1004B800103083129000CA21ED21013083120317F6
:1004C800D70037200C300317D70037200130031727
:1004D800C9000130CA004530CB00832102308312A5
:1004E8000317C9000430CA003B30CB008321023017
:1004F800FB000430FC00BA30FD00FD0B812AFC0B28
:10050800812AFB0B812A0000013083120317D700D0
:10051800372001300317C900F12070088312031730
:10052800C7007108C8000A30F4000030F5001A202E
:1005380002307002F2000030031C013E7102F30029
:1005480072080317C7007308C800FF307306031D3D
:10055800AF2AFE307206031DB32AC701C801470837
:10056800C9004808CA006730CB0019210130C9000A
:100578000130CA002E30CB008321023083120317CA
:10058800C9000530CA006730CB0083210230FB0068
:100598000430FC00BA30FD00FD0BD02AFC0BD02A39
:1005A800FB0BD02A0000013083120317D700372035
:1005B8000317C901F120700883120317C5007108D9
:1005C800C6000A30F4000030F5001A20700803173E
:1005D800C5007108C6007108003C031DF52A7008A3
:1005E800643C0318FB2A6430C5000030C6000030A4
:1005F8004602031D012B003045020318052BC501D7
:10060800C6014508C9004608CA006730CB00192151
:100618000130C9000130CA002030CB0083210230EC
:1006280083120317C9000530CA006730CB00832145
:100638000230FB000430FC00BA30FD00FD0B222B19
:10064800FC0B222BFB0B222B00000130831203171B
:10065800D70037208F018E0186140630FD00FD0B70
:10066800332B0000861006193A2B372B1014061D61
:100678003E2B3B2B10100F08F100F0010E08F00480
:100688000030F10470080317C3007108C40050302B
:10069800F4000030F5001A2070080317C300710831
:1006A800C4007108003C031D5B2B7008643C0318F0
:1006B800612B6430C3000030C40000304402031DC5
:1006C800672B0030430203186B2BC301C4010030B1
:1006D8004406031D712B00304306031D752B0313BD
:1006E800091503174308C9004408CA006730CB003E
:1006F80019210130C9000130CA005530CB008321CF
:10070800023083120317C9000530CA006730CB00D6
:1007180083210230FB000430FC00BA30FD00FD0BE1
:10072800932BFC0B932BFB0B932B000001308312B4
:100738000317D70037208F018E0106140630FD00FD
:10074800FD0BA42B00000610061AAB2BA82B1014C7
:10075800061EAF2BAC2B10100F08F100F0010E088D
:10076800F0040030F10470088316EE007108EF0001
:100778005030F4000030F5001A2070088316EE009F
:100788007108EF0000307106031DCC2B6530700630
:10079800031DD22B6430EE000030EF0000306F06EE
:1007A800031DD82B66306E060319E32B00306F0645
:1007B800031DE02B00306E060319E32BE72BEE0137
:1007C800EF018312891483166E0883120317C90078
:1007D800831603136F0883120317CA006730CB0010
:1007E80019210130C9000130CA001030CB00832123
:1007F800023083120317C9000530CA006730CB00E6
:1008080083210230FB000430FC00BA30FD00FD0BF0
:100818000B2CFC0B0B2CFB0B0B2C00000130831258
:100828000317D7003720031748084602031D1E2C5C
:10083800470845020318B02D0030831603136F06CE
:10084800031D282C00306E06031D352C0030831242
:1008580003174406031D322C00304306031D352CB4
:100868008D2A0030831603136F06031D3D2C0030BC
:100878006E06031DF32C013083120317C9000130E3
:10088800CA00D530CB008321023083120317C90078
:100898000130CA00CA30CB008321F73083128700A9
:1008A8000430FB000C30FC003330FD00FD0B5A2CEB
:1008B800FC0B5A2CFB0B5A2C00000000870101305E
:1008C8000317D7003720031745084702F0004608EA
:1008D800031C013E4802F1000530F0070318F10A35
:1008E8007008C302031CC4037108C402053047071B
:1008F800F10048080318013EF2007108C5007208AB
:10090800C6007208003C031D8B2C7108643C031858
:10091800912C6430C5000030C60000304402031D2D
:10092800972C0030430203189D2C83160313EE0105
:10093800EF01831203174508C9004608CA0067304B
:10094800CB0019210130C9000130CA003230CB0078
:100958008321023083120317C9000530CA006730AB
:10096800CB0083210230FB000430FC00BA30FD00CC
:10097800FD0BBC2CFC0BBC2CFB0BBC2C0000013071
:1009880083120317D700372003174308C900440808
:10099800CA006730CB0019210130C9000130CA00F4
:1009A8002130CB008321023083120317C9000530A0
:1009B800CA006730CB0083210230FB000430FC0002
:1009C800BA30FD00FD0BE62CFC0BE62CFB0BE62CED
:1009D8000000013083120317D70037208D2A8312B5
:1009E80001300317C9000130CA00E130CB00832170
:1009F800023083120317C9000130CA00BF30CB0090
:100A08008321FD30831287000430FB000C30FC008A
:100A18003330FD00FD0B0E2DFC0B0E2DFB0B0E2DA8
:100A280000000000870101300317D70037200317A3
:100A380045084702F0004608031C013E4802F10041
:100A48000530F0070318F10A700883160313EE0245
:100A5800031CEF037108EF020530831203174707E1
:100A6800F10048080318013EF2007108C500720839
:100A7800C6007208003C031D432D7108643C03182E
:100A8800492D6430C5000030C600003083160313BA
:100A98006F02031D512D00306E020318552DEE0113
:100AA800EF01831203174508C9004608CA006730DA
:100AB800CB0019210130C9000130CA00B130CB0088
:100AC8008321023083120317C9000530CA0067303A
:100AD800CB0083210230FB000430FC00BA30FD005B
:100AE800FD0B742DFC0B742DFB0B742D00000130D5
:100AF80083120317D700372083166E088312031753
:100B0800C900831603136F0883120317CA006730DE
:100B1800CB0019210130C9000130CA00A030CB0038
:100B28008321023083120317C9000530CA006730D9
:100B3800CB0083210230FB000430FC00BA30FD00FA
:100B4800FD0BA42DFC0BA42DFB0BA42D00000130E4
:0C0B580083120317D70037208D2AB12D1F
:100CF80020308400463083120313F000B730EE0032
:100D08000530EF00E121A03084002A308312F00082
:100D1800FD30EE000530EF00E1216630840001303F
:100D28008312F0007A30EE000630EF00E121CA307D
:100D3800840017308312F0004630EE000630EF00D2
:100D4800E12110308317840011308312F0005D30E8
:100D5800EE000630EF00E1218313E13084000C300F
:100D68008312F0006E30EE000630EF00E1212130F2
:100D7800831784001F308312F0002730EE000630FE
:080D8800EF00E12183130800D4
:100B6E0054346F347034723461346B3420346E34D8
:0C0B7E0065346D3469343A34203400349E
:100B8A004534733469346B342034443465346734FF
:0A0B9A00653472343A34203400341C
:100BA4002034533469347334743465346D346934A3
:040BB40020340034B5
:100BB800203441346B3469346C346C3469342034F7
:100BC800533475346C3461346D34613420340034FA
:100BD8002034423420346B34613462346934203434
:100BE8006434653467346534723469343A34203493
:020BF8000034C7
:100BFA002034413420346B34613462346934203413
:100C0A006434653467346534723469343A34203470
:020C1A000034A4
:100C1C0054346F347034723461346B3420346E3429
:0C0C2C0065346D3469343A3420340034EF
:100C38004D346F3474346F34723420344134633437
:060C480069346B34003436
:100C4E002034423420346B346134623469342034BD
:100C5E006434653467346534723469343A3420341C
:020C6E00003450
:100C700054346F347034723461346B3420346E34D5
:0C0C800065346D3469343A34203400349B
:100C8C004D346F3474346F347234203441346334E3
:060C9C0069346B340034E2
:100CA20054346F347034723461346B3420346B34A6
:080CB20075347234753400340E
:100CBA002034413420346B34613462346934203452
:100CCA006434653467346534723469343A342034B0
:020CDA000034E4
:100CDC0054346F347034723461346B3420346B346C
:080CEC007534723475340034D4
:020CF40030349A
:04400E00F22F000786
:00000001FF
